:100000000C945D000C9485000C9485000C94850084
:100010000C9485000C9485000C9485000C9485004C
:100020000C9485000C9485000C9485000C9485003C
:100030000C9485000C9485000C9485000C9485002C
:100040000C947B020C9485000C9449020C942302BE
:100050000C9485000C9485000C9485000C9485000C
:100060000C9485000C94850000000008000201003B
:100070000003040700000000000000000000000072
:10008000250028002B0000000000240027002A0083
:10009000040404040404040402020202020203032E
:1000A0000303030301020408102040800102040836
:1000B0001020010204081020C50211241FBECFEF3A
:1000C000D8E0DEBFCDBF11E0A0E0B1E0E0E1F9E0B3
:1000D00002C005900D92AC33B107D9F721E0ACE333
:1000E000B1E001C01D92A43FB207E1F710E0CDE5F9
:1000F000D0E004C02197FE010E948004CC35D107D6
:10010000C9F70E942E030C9486040C940000E5E7C6
:10011000F0E02491E1EBF0E09491EDE9F0E0E4917E
:10012000EE23C9F0222339F0233001F1A8F4213065
:1001300019F1223029F1F0E0EE0FFF1FE458FF4FD4
:10014000A591B4912FB7F894EC91811126C09095A8
:100150009E239C932FBF08952730A9F02830C9F023
:10016000243049F7209180002F7D03C0209180002A
:100170002F7720938000DFCF24B52F7724BDDBCFEE
:1001800024B52F7DFBCF2091B0002F772093B000B6
:10019000D2CF2091B0002F7DF9CF9E2BDACFE62F62
:1001A000F0E024E0F595E7952A95E1F7E050FF4F60
:1001B0002081FC0120836F70E62FF0E0E050FF4FBC
:1001C0002081FC0121830895AF92BF92CF92DF92EC
:1001D000EF92FF920F931F93CF93DF936C017B01FC
:1001E0008B01040F151FEB015E01AE18BF08C0178D
:1001F000D10759F06991D601ED91FC910190F08100
:10020000E02DC6010995892B79F7C501DF91CF91C2
:100210001F910F91FF90EF90DF90CF90BF90AF9024
:100220000895FC01538D448D252F30E0842F90E0FC
:10023000821B930B541710F0CF96089501970895E1
:10024000FC01918D828D981761F0A28DAE0FBF2FAA
:10025000B11D5D968C91928D9F5F9F73928F90E000
:1002600008958FEF9FEF0895FC01918D828D98176F
:1002700031F0828DE80FF11D858D90E008958FEFAC
:100280009FEF0895FC01918D228D892F90E0805C75
:100290009F4F821B91098F739927089585E591E0FF
:1002A0000E94420121E0892B09F420E0822F089569
:1002B00080E090E0892B29F00E944E0181110C947E
:1002C00000000895FC01A48DA80FB92FB11DA35AF9
:1002D000BF4F2C91848D90E001968F739927848F66
:1002E000A689B7892C93A089B1898C918370806489
:1002F0008C93938D848D981306C00288F389E02D2A
:1003000080818F7D80830895EF92FF920F931F93DA
:10031000CF93DF93EC0181E0888F9B8D8C8D9813B8
:100320001AC0E889F989808185FF15C09FB7F894C4
:10033000EE89FF896083E889F98980818370806410
:1003400080839FBF81E090E0DF91CF911F910F915B
:10035000FF90EF900895F62E0B8D10E00F5F1F4F6A
:100360000F731127E02E8C8D8E110CC00FB607FC79
:10037000FACFE889F989808185FFF5CFCE010E9407
:100380006201F1CFEB8DEC0FFD2FF11DE35AFF4F12
:10039000F0829FB7F8940B8FEA89FB898081806295
:1003A000CFCFCF93DF93EC01888D8823B9F0AA8952
:1003B000BB89E889F9898C9185FD03C0808186FD20
:1003C0000DC00FB607FCF7CF8C9185FFF2CF80816F
:1003D00085FFEDCFCE010E946201E9CFDF91CF9181
:1003E00008953FB7F89480913D0190913E01A0910E
:1003F0003F01B091400126B5A89B05C02F3F19F0E1
:100400000196A11DB11D3FBFBA2FA92F982F882794
:10041000BC01CD01620F711D811D911D42E0660F6F
:10042000771F881F991F4A95D1F70895FC01019005
:100430000020E9F73197AF01481B590BBC0185E556
:1004400091E00C94E4001F920F920FB60F921124CA
:100450002F933F934F935F936F937F938F939F93CC
:10046000AF93BF93EF93FF9385E591E00E94620104
:10047000FF91EF91BF91AF919F918F917F916F917C
:100480005F914F913F912F910F900FBE0F901F9052
:1004900018951F920F920FB60F9211242F938F93DE
:1004A0009F93EF93FF93E0916501F0916601808146
:1004B000E0916B01F0916C0182FD1BC090818091F5
:1004C0006E018F5F8F7320916F01821741F0E09171
:1004D0006E01F0E0EB5AFE4F958F80936E01FF9115
:1004E000EF919F918F912F910F900FBE0F901F90C2
:1004F00018958081F4CF1F920F920FB60F9211249E
:100500002F933F938F939F93AF93BF93809141011C
:1005100090914201A0914301B091440130913C017E
:1005200023E0230F2D3758F50196A11DB11D20930F
:100530003C018093410190934201A0934301B09309
:10054000440180913D0190913E01A0913F01B09105
:1005500040010196A11DB11D80933D0190933E0184
:10056000A0933F01B0934001BF91AF919F918F91B4
:100570003F912F910F900FBE0F901F90189526E876
:10058000230F0296A11DB11DD2CF109258011092D7
:10059000570188EE93E0A0E0B0E08093590190937A
:1005A0005A01A0935B01B0935C0184E191E09093C8
:1005B00056018093550185EC90E090936201809301
:1005C000610184EC90E0909364018093630180EC7E
:1005D00090E0909366018093650181EC90E09093A8
:1005E00068018093670182EC90E090936A018093A8
:1005F000690186EC90E090936C0180936B011092FE
:100600006E0110926F0110927001109271011092A0
:10061000F3011092F201E1EBF0E02491EDE9F0E05A
:100620008491882399F090E0880F991FFC01EA5784
:10063000FF4FA591B491FC01E458FF4F859194912F
:100640008FB7F894EC91E22BEC938FBF80E00E947F
:1006500087001092F3011092F2010895CF93DF9377
:10066000CDB7DEB7A1970FB6F894DEBF0FBECDBFF2
:10067000789484B5826084BD84B5816084BD85B57D
:10068000826085BD85B5816085BD80916E00816089
:1006900080936E001092810080918100826080932F
:1006A0008100809181008160809381008091800031
:1006B0008160809380008091B10084608093B1005C
:1006C0008091B00081608093B00080917A00846056
:1006D00080937A0080917A00826080937A00809182
:1006E0007A00816080937A0080917A00806880939C
:1006F0007A001092C10090E3292E25E4322E3AE0D0
:10070000432E512C612C712C8091F2019091F301B8
:10071000892B09F0B2C081E00E94870081E090E05F
:100720009093F3018093F2010091F2011091F30193
:100730008FB7F894C0904101D0904201E0904301FE
:10074000F09044018FBF20924501309246016C2DFC
:1007500087E491E00E94CF006D2D89E491E00E9432
:10076000CF006E2D8BE491E00E94CF006F2D8DE4C1
:1007700091E00E94CF0060E58FE491E00E94CF00FD
:1007800061E081E591E00E94CF004EE050E065E439
:1007900071E085E591E00E94E4006801110FEE0828
:1007A000FF08F7FE72C06DE285E591E00E948401CA
:1007B00022273327A9012C193D094E095F0919A2E7
:1007C000FE01B1967F01CA01B901A30192010E9405
:1007D0005E04605DF70162937F01211531054105DB
:1007E000510589F7E114F10419F0C7010E941602BE
:1007F00082E291E00E9416028091F2019091F30151
:10080000892B09F058C085E291E00E94160282E22D
:1008100091E00E9416020E94F1014B015C0188EEFA
:10082000C82E83E0D82EE12CF12C0E94F10168192A
:1008300079098A099B09683E734081059105A8F3EF
:10084000F1E0CF1AD108E108F10828EE820E23E08A
:10085000921EA11CB11CC114D104E104F10429F7BA
:1008600080E090E0892B09F44FCF0E944E0188234D
:1008700009F44ACF0E94000047CF80E00E94870021
:100880001092F3011092F2014FCFA701960119A225
:10089000CE0181967C01CA01B901A30192010E9497
:1008A0005E04605DF70162937F012115310541050A
:1008B000510589F797CF81E391E0A7CFA1E21A2EE6
:1008C000AA1BBB1BFD010DC0AA1FBB1FEE1FFF1FF4
:1008D000A217B307E407F50720F0A21BB30BE40B44
:1008E000F50B661F771F881F991F1A9469F760958B
:1008F0007095809590959B01AC01BD01CF01089545
:10090000EE0FFF1F0590F491E02D0994F894FFCFAE
:100910003031323334353637383941424344454635
:10092000000000008401E4001101D1014201200116
:1009300034010D0A004F533A204C4544204F46469F
:0C094000004F533A204C4544204F4E001D
:107E0000112484B714BE81FFF0D085E080938100F7
:107E100082E08093C00088E18093C10086E0809377
:107E2000C20080E18093C4008EE0C9D0259A86E02C
:107E300020E33CEF91E0309385002093840096BBD3
:107E4000B09BFECF1D9AA8958150A9F7CC24DD24C4
:107E500088248394B5E0AB2EA1E19A2EF3E0BF2EE7
:107E6000A2D0813461F49FD0082FAFD0023811F036
:107E7000013811F484E001C083E08DD089C08234E0
:107E800011F484E103C0853419F485E0A6D080C0E4
:107E9000853579F488D0E82EFF2485D0082F10E0AE
:107EA000102F00270E291F29000F111F8ED06801E7
:107EB0006FC0863521F484E090D080E0DECF843638
:107EC00009F040C070D06FD0082F6DD080E0C81688
:107ED00080E7D80618F4F601B7BEE895C0E0D1E017
:107EE00062D089930C17E1F7F0E0CF16F0E7DF06D8
:107EF00018F0F601B7BEE89568D007B600FCFDCFD4
:107F0000A601A0E0B1E02C9130E011968C91119780
:107F100090E0982F8827822B932B1296FA010C0160
:107F200087BEE89511244E5F5F4FF1E0A038BF0790
:107F300051F7F601A7BEE89507B600FCFDCF97BE46
:107F4000E89526C08437B1F42ED02DD0F82E2BD052
:107F50003CD0F601EF2C8F010F5F1F4F84911BD097
:107F6000EA94F801C1F70894C11CD11CFA94CF0C13
:107F7000D11C0EC0853739F428D08EE10CD085E9AC
:107F80000AD08FE07ACF813511F488E018D01DD067
:107F900080E101D065CF982F8091C00085FFFCCF94
:107FA0009093C60008958091C00087FFFCCF809118
:107FB000C00084FD01C0A8958091C6000895E0E648
:107FC000F0E098E1908380830895EDDF803219F02E
:107FD00088E0F5DFFFCF84E1DECF1F93182FE3DFCA
:107FE0001150E9F7F2DF1F91089580E0E8DFEE27F6
:047FF000FF270994CA
:027FFE00040479
:0400000300007E007B
:00000001FF
